:020000040800F2
:10000000B06E00205D020008715400082926000827
:100010006F540008E90B000815620008000000009A
:100020000000000000000000000000009D0100082A
:10003000D30C000800000000F901000885590008F1
:1000400077020008770200087702000877020008AC
:10005000770200087702000877020008770200089C
:10006000770200087702000877020008770200088C
:10007000770200087702000877020008770200087C
:10008000770200087702000877020008770200086C
:10009000770200087702000877020008770200085C
:1000A000770200087702000877020008770200084C
:1000B000770200087702000877020008770200083C
:1000C000770200087702000877020008770200082C
:1000D00077020008FD610008770200087702000837
:1000E000770200087702000877020008770200080C
:1000F00077020008770200087702000877020008FC
:1001000077020008770200087702000877020008EB
:10011000770200087702000877020008555A0008A5
:100120007702000877020008ED0B0008770200084C
:1001300077020008770200087702000877020008BB
:1001400077020008770200087702000877020008AB
:100150007702000877020008F90B00087702000810
:10016000770200087702000877020008770200088B
:1001700077020008770200087702000800000000FC
:100180007702000877020008DFF80CD000F0E2FBED
:1001900000480047C58D0008B06E00202C4B196840
:1001A0000868B0E8F04F80F30988BFF36F8F4FF015
:1001B000000080F3118870470000000008480068C4
:1001C000006880F308884FF0000080F3148862B65E
:1001D00061B6BFF34F8FBFF36F8F00DF00BF00BF6B
:1001E00008ED00E0DFF80C00016841F470010160E7
:1001F000704700BF88ED00E0EFF30980BFF36F8F19
:10020000134B1A681EF0100F08BF20ED108A20E96A
:10021000F04F106009B44FF0500080F31188BFF325
:100220004F8FBFF36F8F09F05BFF4FF0000080F33B
:10023000118809BC19680868B0E8F04F1EF0100F6B
:1002400008BFB0EC108A80F30988BFF36F8F704746
:1002500054000020EFF305807047000006488047F7
:1002600006480047FEE7FEE7FEE7FEE7FEE7FEE79B
:10027000FEE7FEE7FEE7FEE7455A000889010008B1
:100280002DE9F05F0546002092469B4688460646CB
:10029000814640241BE0284641464746224600F05E
:1002A000A3FA53465A46C01A914110D31146184634
:1002B000224600F016F82D1A67EB01084F46224639
:1002C0000120002100F00DF817EB00094E41201E1F
:1002D000A4F10104DFDC484631462A464346BDE826
:1002E000F09F202A04DB203A00FA02F10020704738
:1002F0009140C2F1200320FA03F319439040704764
:1003000040EA01039B0703D009E008C9121F08C097
:10031000042AFAD203E011F8013B00F8013B521E17
:10032000F9D27047D2B201E000F8012B491EFBD28E
:1003300070470022F6E710B513460A4604461946F0
:10034000FFF7F0FF204610BD421C10F8011B0029EA
:10035000FBD1801A704730B504460020034600E008
:100360005B1C934203D2E05CCD5C401BF8D030BDF7
:100370002DE9FE4F804681EA0300C00F0C46009035
:1003800021F0004123F00045B8EB0200A94105D25D
:100390004046214690461C460B46024623F000404C
:1003A000104347D0270DC7F30A00C3F30A51029048
:1003B000401A019040286BDAC3F3130040F4801B0D
:1003C0000098924620B10023D2EB030A63EB0B0B9B
:1003D00001985946C0F140025046FFF782FF064699
:1003E0000D4650465946019A00F00EFA10EB0800EF
:1003F0006141002487EA115284EAE7731A4340D02E
:10040000009A62B3019A012A4FEA075215DC001BD9
:1004100061EB02014FF0004202EA0752CDE90042CF
:10042000001C41F5801132462B4600F045FA03B01E
:10043000BDE8F08F40462146F9E7001B61EB020161
:10044000001C41F5801300185B412018A2F500172D
:1004500047EB030140EAD570B6196D4111E06D0814
:100460004FEA360645EAC0754FEA0752001B61EBBA
:100470000201001C41F5801149084FEA30000019C3
:10048000514132462B4603B0BDE8F04F00F005BAAB
:100490000098012240000023D0EB020263EBE073DE
:1004A000009821464FEAE074B8EB000061EB0401CC
:1004B000E9E783F000435BE781F0004158E72DE96D
:1004C000FE4F81EA030404F0004421F0004100944F
:1004D0004FF0000B23F0004350EA01045ED052EAD3
:1004E00003045BD0C3F30A54C1F30A552C44A4F2AD
:1004F000F3340194A0FB0254C1F3130141F48011C1
:10050000C3F3130343F4801301FB024400FB034EC7
:10051000840A970A44EA815447EA8357A4FB076890
:1005200002958D0A05FB07854FEA932C04FB0C54BA
:100530002705029D4FEA065847EA1637B5EB08052E
:100540006EEB070C870E920E47EA811742EA831280
:10055000A7FB0201B6EB0B0164EB00042B0D43EA91
:100560000C335E1844EB1C50DA465146E7FB02019F
:10057000C5F313044FEA0B3343EA14534FEA043232
:10058000019C43EA0603A4F10C040294009CCDE90B
:1005900000B400F091F903B0BDE8F08F00200146EF
:1005A000F9E72DE9F04D81EA030404F0004B21F056
:1005B000004514464FF0000A23F0004150EA0502BE
:1005C00020D054EA01021DD0C5F30A570246C5F3F4
:1005D0001303C1F31300C1F30A5640F4801543F42A
:1005E0008013A7EB0608101BD64608F2FD3873EB04
:1005F000050002D308F1010801E092185B41B8F14F
:10060000000F03DA00200146BDE8F08D00204FF412
:100610008011064684460EE0171B73EB050705D3D1
:10062000121B63EB050306434CEA010C49084FEA31
:10063000300092185B4150EA0107EDD152EA030005
:1006400012D082EA040083EA0501084305D0101B9A
:10065000AB4106D20122002306E000224FF0004306
:1006600002E06FF0010253101AEB06004CEB085148
:1006700010EB0A0041EB0B01BDE8F04D00F00DB9A5
:100680000EB540F2334102910021CDE900110A4636
:100690000B4600F011F903B000BDC1F30A5210B5CA
:1006A000C1F3130140F2FF3341F480119A4201DAA1
:1006B000002010BD40F233439A42A2F2334203DCE1
:1006C000524200F091F810BD904010BDC1F30A52A3
:1006D000C1F3130140F2FF3341F480119A4202DA70
:1006E00000200146704740F233439A42A2F233425F
:1006F00002DC524200F078B8FFF7F3BD00F0004290
:1007000030F000400AD0C10D01F56071C0F3160051
:1007100042EA0151C20840071143704700200146D8
:100720007047000030B5041E71F1000404DB4FF087
:100730000044404264EB0101141E73F1000405DB28
:100740001C464FF00043524263EB04038B4208BF48
:10075000824230BD30B5041E71F1000404DB4FF05D
:100760000044404264EB0101141E73F1000405DBF8
:100770001C464FF00043524263EB0403994208BF0A
:10078000904230BD01F0004330B421F0004150EA06
:10079000010206D00A0DA2F56072C1F31301002A0E
:1007A00002DC30BC00207047440F44EAC104C100A1
:1007B000E01830BC00EBC25000F038B830B50B4642
:1007C000014600202022012409E021FA02F59D4281
:1007D00005D303FA02F5491B04FA02F52844151E55
:1007E000A2F10102F1DC30BD202A04DB203A21FA1B
:1007F00002F00021704721FA02F3D040C2F120023A
:100800009140084319467047202A06DBCB17203A4F
:1008100041FA02F043EAE07306E041FA02F3D04005
:10082000C2F1200291400843194670470029A8BF31
:100830007047401C490008BF20F00100704710B409
:10084000B0FA80FC00FA0CF050EA010404BF10BCBE
:10085000704749B1CCF1200421FA04F411FA0CF1EB
:1008600018BF012121430843A3EB0C01CB1D4FEA24
:1008700000614FEA102042BF002010BC704700EB1F
:10088000C35010440029A4BF10BC7047401C49004D
:1008900008BF20F0010010BC704710B5141E73F1A2
:1008A000000408DA401C41F1000192185B411A4330
:1008B00001D120F0010010BD2DE9F04D92469B467C
:1008C00011B1B1FA81F202E0B0FA80F22032904622
:1008D000FFF707FD04460F4640EA0A0041EA0B0114
:1008E00053465A46084313D0114653EA010019D023
:1008F000C8F140025046FFF777FF05460E465046C6
:1009000059464246FFF7EDFC084305D0012004E0BC
:1009100020463946BDE8F08D0020054346EAE076E2
:100920002C4337430A986305E40AA0EB0800002231
:10093000FD0A44EA47540A3002D500200146E9E79F
:10094000010510196941DDE9084500196941BDE853
:10095000F04DA2E7064C074D06E0E06840F00103C9
:1009600094E8070098471034AC42F6D3FFF710FC28
:1009700054A5080874A5080870B58C1810F8015B18
:1009800015F0070301D110F8013B2A1106D110F828
:10099000012B03E010F8016B01F8016B5B1EF9D12C
:1009A0002B0705D40023521E0DD401F8013BFAE7B2
:1009B00010F8013BCB1A921C03E013F8015B01F81D
:1009C000015B521EF9D5A142D8D3002070BD0000B2
:1009D0001CB5184C2068002810D1174800680090FA
:1009E00000226946204607F029FA019010F0FF0F17
:1009F00005D0020AC1B211A005F00EFC1CBD0021F9
:100A0000206807F097FA60600021206807F09EFADE
:100A1000A060616821B118B112A005F0FDFB1CBDFA
:100A200016A005F0F9FB206807F062FA00202060AC
:100A30001CBD00000800002054F80008414920E5D2
:100A4000889DE5A78BE58C96E5A4B1E8B4A53A208E
:100A5000747970653D25642C20636F64653D256461
:100A60000A000000414920E5889DE5A78BE58C96AA
:100A7000E68890E58A9FEFBC810A0000E88EB7E522
:100A80008F96E8BE93E585A52FE8BE93E587BAE784
:100A9000BC93E586B2E58CBAE5A4B1E8B4A5EFBC99
:100AA000810A00002DE9F0470446DFF8F0904FF08E
:100AB000FF38D9F800A0BAF1000F67D0D9F8046068
:100AC000002E63D0D9F80870002F5FD0344D7560C8
:100AD00005F14000786094ED080B51EC100BFFF726
:100AE00051FE286094ED0A0B51EC100BFFF74AFE03
:100AF000686094ED0C0B51EC100BFFF743FEA860FF
:100B000094ED0E0B51EC100BFFF73CFEE86094EDFA
:100B1000020B51EC100BFFF735FE286194ED040B2E
:100B200051EC100BFFF72EFE686194ED060B51ECB3
:100B3000100BFFF727FEA86194ED100B51EC100B82
:100B4000FFF720FEE86194ED120B51EC100BFFF75C
:100B500019FE286294ED140B51EC100BFFF712FEF6
:100B600068623A463146504607F0FCF90446002CCC
:100B700011DCD9F8000007F0BDF9030AC2B2214622
:100B800008A005F049FB4046BDE8F08710A005F03D
:100B900043FB4046F8E70020F6E70000080000208D
:100BA000A0140020E68EA8E79086E5A4B1E8B4A5DD
:100BB0003A2062617463683D25642C207479706505
:100BC0003D25642C20636F64653D25640A000000A8
:100BD000414920E69CAAE5889DE5A78BE58C96EF28
:100BE000BC815C6E00000000FEE70000014800F0E0
:100BF000F1B90000281F0020014800F0EBB9000007
:100C0000881F00200168CAB2103A1823B2FBF3F221
:100C1000064B9B5CC3656FF30901032A02D9091DCA
:100C2000816500E08165806D70470000C8F80008AC
:100C300010B5014600208A6A8B694FF0C074002B02
:100C40000ED0B3F5005F1AD062B3012A2AD0022A6F
:100C500028D0032A03D1C96AC90100D5012010BDDB
:100C60001AB1012A06D0022AF9D1C96AC901F6D5FA
:100C7000012010BDC96AA142FBD1012010BD52B1B3
:100C8000012A0AD0022A06D0032AF7D1C96AA14252
:100C9000F4D1012010BD012010BDC96AC901FBD5E6
:100CA000012010BD012010BD30B50468256825F471
:100CB00080252560046863608368402B04D0036846
:100CC00099600068C26030BD03689A600068C160C6
:100CD00030BD704772B6FEE730B5B3F5804F05D032
:100CE0006FF0704140F82210002030BD8C690B6815
:100CF0008D6823434C688989240144EA05242343F1
:100D000043EA014150F82230024C2340194340F895
:100D10002210E9E70000F0CF10B50A6850F8223041
:100D200023F0010340F822308B68082B23D00022E7
:100D30004C681C43CB6813430A691C4314434A693B
:100D40001443CA6914430A6A14434A6A14438A6AF8
:100D50001443CA6A14430A6B14438A692243CB6B57
:100D60001343064C096850F82120A2431A4340F867
:100D70002120002010BD4022DAE700007FFF0F0095
:100D800030B5D1E9003443EA04138C688D8924021C
:100D900044EA054423430C8A641E43EA04540B7D51
:100DA00089699B1E44EA03630B43521C50F82210CE
:100DB00001F040410B4340F82230002030BD70B5B7
:100DC00004460D4695ED000B84ED080B95ED020BE6
:100DD00084ED0A0B2846017C21704669084607F01D
:100DE00087FF207630B1C20005F1180104F1080038
:100DF000FFF786FA207801280AD0022808D00328B5
:100E000006D0042806D0052804D0062802D002E027
:100E1000266600E06666072809D2DFE800F00804CD
:100E20000912171C210094ED020B84ED0C0B70BD10
:100E300094ED020B84ED0E0B94ED040B84ED100B7E
:100E400070BD94ED020B84ED120B70BD94ED020B9E
:100E500084ED140B70BD94ED020B84ED160B70BD88
:100E600094ED020B84ED140B94ED040B84ED160B42
:100E700070BD70B504460D4694ED080B85ED000B72
:100E800094ED0A0B85ED020B05F11002207810603D
:100E90000021207801280AD0022808D0032806D093
:100EA000042806D0052804D0062802D002E0216ECE
:100EB00000E0616E5160207807F01AFF002808D02A
:100EC000C20004F1080105F11800BDE87040FFF709
:100ED00017BA70BD10B50446002C02D0607910B16D
:100EE00006E0012010BD00202071204600F004F82B
:100EF00001206071002010BD08B5006806498842D5
:100F000008D10648016841F480510160006800F48E
:100F10008050009008BD0000003002403038024090
:100F20002DE9F0410446A76D00F048FB054694F812
:100F300035000026022806D08020606584F83460E1
:100F40000120BDE8F0812068016821F016010160F0
:100F50002068416921F080014161206C08B9A06CD2
:100F600020B12068016821F0080101602068016853
:100F700021F0010101600BE000F020FB401B05287F
:100F800006D9202034342062032060702670D8E710
:100F900020680068C007EFD134343F2094F828104F
:100FA0008840B8600120607026700020C9E790F882
:100FB0003510022903D080214165012070470521A9
:100FC00080F835100068016821F0010101600020FF
:100FD000704700002DE9F84304464FF00009CDF8B2
:100FE00000906F484FF416510068B0FBF1F7A56D03
:100FF0002E6894F85C00082202FA00F1314210D009
:101000002068016849070CD5016821F004010160DE
:1010100094F85C0002FA00F1A960606D40F00100F4
:10102000606594F85C104FF0010808FA01F0304256
:1010300008D021684969090604D5A860606D40F0B0
:101040000200606594F85C1004208840304208D0AB
:1010500021680968890704D5A860606D40F0040024
:10106000606594F85C1010208840304220D02168E0
:10107000096809071CD5A8602068016849030CD5D8
:101080000068000304D4216C91B1204688470FE02A
:10109000A16C69B1204688470AE00168C90503D4FC
:1010A000016821F008010160216C09B120468847E0
:1010B00094F85C102020884030424CD021680968A8
:1010C000C90648D5A86094F8350005280BD02068DB
:1010D0000168490330D50068000328D4616C51B31E
:1010E0002046884737E02068016821F0160101603A
:1010F0002068416921F080014161206C08B9A06C31
:1011000020B12068016821F00801016094F85C10AA
:101110003F208840A86084F8358084F83490216DA1
:1011200000293BD001B02046BDE8F0430847E16B01
:1011300009B1204688470EE00168C90507D4016857
:1011400021F01001016084F8358084F83490E16B5F
:1011500009B120468847606D00281FD0606DC00728
:1011600014D0052084F835002068016821F00101C1
:1011700001600098401C0090B84203D820680068C5
:10118000C007F6D184F8358084F83490E16C0029EA
:1011900004D001B02046BDE8F0430847BDE8F8831D
:1011A000500000202DE9F041044600F007FA054602
:1011B0005CB1022084F83500002684F83460206891
:1011C000016821F0010101600DE00120BDE8F0811E
:1011D00000F0F4F9401B052805D9202060650320A4
:1011E00084F83500F2E720680068C007F0D1216874
:1011F0000A6820480240D4E901031843D4E90335C2
:101200002B43184363691843A3691843E3691843E0
:10121000236A18431043626A042A03D1D4E90B23DA
:101220001A43104308602068406920F00700656A8F
:1012300029460543012704290DD1A06A0543E06A28
:1012400048B12046FFF7F4FC28B14020606584F8DF
:1012500035700120BAE7206845612046FFF7D2FCCF
:1012600094F85C203F2191408160666584F8357078
:101270000020ABE73F8010F02DE9F0410446002547
:10128000A66D94F8340001280DD0012084F83400B4
:1012900094F835700020012F07D084F8340002251F
:1012A0002846BDE8F0810220FBE7022784F835706C
:1012B00060652046FFF7F8FC94F85C103F208840FA
:1012C000B0602068016841F016010160206C20B117
:1012D0002068016841F0080101602068016841F060
:1012E00001010160DCE7000070B5044600F066F91A
:1012F0000546601C02D004480078044400F05EF902
:10130000401BA042FAD370BD440000202DE9F041FB
:1013100086B0142101A8FFF70CF8214801680029C4
:101320003AD10121016000241E48016841F0010109
:101330000160006800F0010000904FF48058CDF883
:101340000480022502950394032604960C27059732
:1013500001A9154800F030F84FF680700190029511
:1013600003940496059701A9104800F025F84CF263
:1013700033700190029503940496059701A90C48D7
:1013800000F01AF8CDF804800295039404960597AE
:1013900001A9084800F010F806B0BDE8F08100008F
:1013A0003C00002038380240001402400010024087
:1013B000000C0240001802402DE9F84F0022DFF82F
:1013C0009C914FF0010803274FF00F0C09F1040A1C
:1013D000A9F1040B08FA02F50B682B40AB426ED161
:1013E0000C7904F00304012C01D0022C15D186687D
:1013F000540007FA04FE26EA0E06D1F80CE00EFAB5
:1014000004FE4EEA060EC0F808E04468AC430D79CD
:10141000C5F300159540254345600C79E443A407C6
:1014200008D0C568540007FA04F6B5438E68A64094
:101430002E43C6600C7904F00304022C11D1D408A9
:1014400000EB8406356A5407E40E0CFA04FE25EA24
:101450000E05D1F810E00EFA04FE4EEA050EC6F8AD
:1014600020E00568540007FA04F6B5430E7906F04B
:101470000306A6402E4306604C6814F4403F67D034
:10148000374C256845F480452560246804F4804481
:101490000094344C22F003052E19D6F8085894070E
:1014A0004FEA147E0CFA0EF4A5432F4CA04201D152
:1014B000002424E02D4CA04202D101241FE047E08B
:1014C0002B4CA04201D1022419E02A4CA04201D1A8
:1014D000032414E0284CA04201D104240FE0274C3F
:1014E000A04201D105240AE0254CA04201D10624E6
:1014F00005E0244CA04201D1072400E0082404FAAE
:101500000EF42C43C6F80848D9F800409C434D68B7
:10151000ED0200D51C43C9F80040DAF800409C43B6
:101520004D68AD0200D51C43CAF80040DBF800400E
:101530009C434D68AD0300D51C43CBF80040074DDC
:10154000083D2C689C434E68F60300D51C432C6074
:10155000521C102AFFF43EAFBDE8F88F083C014052
:1015600044380240003001400000024000040240C4
:1015700000080240000C024000100240001402402B
:1015800000180240001C0240002A01D0816170470F
:10159000090481617047000002480068C0F30B0035
:1015A00070470000002004E0004870470001080177
:1015B00001480068000C7047002004E00148806882
:1015C00070470000440000200248816802781144FE
:1015D000816070474400002010B50B48016841F459
:1015E00000710160016841F480610160016841F4AB
:1015F00080710160032000F09FF80F2000F006F8D2
:1016000000F050F8002010BD003C024030B587B01B
:10161000054600241E48016841F020010160006871
:1016200000F02000009001A902A800F03DF9059803
:10163000A8B100F05DF940001649B0FBF1F1491E78
:101640001648154A026040F2E732C2604160046108
:101650008460846100F0B3FB04461CB115E000F027
:1016600047F9E9E70D4800F0D1FB04466CB9372093
:1016700000F034F8102D07D200222946372000F060
:101680003BF80748056000E0012407B0204630BD64
:101690004038024040420F0000140040E81F002084
:1016A0004800002082B00C48016841F4804101608C
:1016B000006800F4804001900748001F016841F075
:1016C00080510160006800F08050019000220F21DD
:1016D000901E02B000F010B844380240002809DB28
:1016E00000F01F02012191404009800000F1E0203C
:1016F000C0F8001170470000F0B40D460D4B1B6898
:10170000C3F30223C3F10704042C00D90424191DD8
:10171000072901D2002300E0DB1E012606FA04F1AE
:10172000491E294099409E40761E16403143F0BC28
:1017300004F0A9BD0CED00E000F00701054A1068B7
:101740004FF6FF03184040EA0120034908431060A8
:10175000704700000CED00E00000FA052DE9F047AD
:1017600004460D46002C13D0DFF82891D9F800006C
:10177000EFB200F00700A8420CD289F80070D9F847
:10178000000000F00700A84204D00120BDE8F08767
:101790000120FBE72068404E810712D5400703D5A2
:1017A000306840F4E05030602078000703D530689E
:1017B00040F4604030603068A16820F0F0000843D9
:1017C00030602078C00731D033496068083901287B
:1017D00008D002280BD0032809D0096889070BD448
:1017E0000120D3E70968890306D40120CEE7096800
:1017F000890101D40120C9E7316821F003010143C7
:101800003160FFF7DBFE804641F2883A07E0FFF7E0
:10181000D5FEA0EB0800504501D90320B6E730689B
:10182000616800F00C00B0EB810FF0D1D9F8000036
:1018300000F00700A84209D989F80070D9F8000023
:1018400000F00700A84201D001209FE72078400760
:1018500005D53068E16820F4E05008433060207816
:10186000000706D53068216920F4604040EAC100D5
:10187000306000F05DF83168084AC1F30311515C33
:10188000C8400749086007480068FFF7BFFE00200E
:101890007CE70000003C024008380240D0F8000815
:1018A00050000020480000200F2202600B4A1368FD
:1018B00003F003034360136803F0F00383601368CD
:1018C00003F4E053C360126802F46042D20802617C
:1018D0000348006800F007000860704708380240BD
:1018E000003C0240014800687047000050000020A2
:1018F00000B5FFF7F7FF04490968044AC1F38221E4
:10190000515CC84000BD000008380240E0F8000803
:1019100000B5FFF7E7FF04490968044AC1F3423103
:10192000515CC84000BD000008380240E0F80008E3
:1019300010B51748006810F00C01164816D0431077
:10194000042912D0082911D1114C241F216801F05B
:101950003F02216849020AD52068C0F38810A0FB25
:1019600003010023FEF78CFC09E0184610BD216836
:101970000023C1F38811A1FB0001FEF781FC21685F
:10198000C1F30141491C4900B0FBF1F010BD00005A
:10199000083802400024F4002DE9F84F0446002CDA
:1019A00013D02078DFF8A083C007A8F1040556D033
:1019B00008F104000168C1F3810101290CD000681D
:1019C000C0F38100022803D00DE00120BDE8F88FAC
:1019D000D8F80000400206D5286880033FD560682B
:1019E00070BB0120F2E76068B0F5803F10D0B0F521
:1019F000A02F12D0286820F480302860286820F4B6
:101A0000802028606068E0B1FFF7D8FD064614E04A
:101A1000286840F480302860F4E7286840F480208B
:101A20002860286840F480302860EBE7FFF7C6FDA7
:101A3000801B642801D90320C8E728688003F5D5F6
:101A40000DE0FFF7BBFD064606E0FFF7B7FD801B84
:101A5000642801D90320B9E728688003F5D42078E9
:101A6000BA4F80074FF0000948D5B748001D0168FC
:101A700011F00C0F08D00068C0F38100022813D1C8
:101A8000D8F8000040020FD42868800704D5E06829
:101A9000012801D0012099E72868216920F0F80089
:101AA00040EAC100286029E0E068B8B10120386050
:101AB000FFF784FD064606E0FFF780FD801B022845
:101AC00001D9032082E728688007F5D528682169B5
:101AD00020F0F80040EAC10028600FE0C7F800904D
:101AE000FFF76CFD064606E0FFF768FD801B022845
:101AF00001D903206AE728688007F5D42078000719
:101B000029D5DFF844A2924861690AF1700A89B1C7
:101B100001210160FFF752FD064606E0FFF74EFD8A
:101B2000801B022801D9032050E7DAF80000800763
:101B3000F4D510E0C0F80090FFF740FD064606E03F
:101B4000FFF73CFD801B022801D903203EE7DAF8AD
:101B500000008007F4D42078400778D54FF0000AC1
:101B600079483C300068C0000BD477483C300168AD
:101B700041F080510160006800F0805000904FF00B
:101B8000010ADFF8D0B1DBF80000C00514D4DBF89F
:101B9000000040F48070CBF80000FFF70FFD064610
:101BA00006E0FFF70BFD801B022801D903200DE79B
:101BB000DBF80000C005F4D5634EA0686C36012840
:101BC0000FD0052812D0306820F001003060306856
:101BD00020F004003060A068F8B1FFF7EFFC834606
:101BE00017E0306840F001003060F4E7306840F002
:101BF00004003060306840F001003060EBE7FFF730
:101C0000DDFCA0EB0B0141F28830814201D90320B9
:101C1000DCE630688007F2D510E0FFF7CFFC8346A2
:101C200009E0FFF7CBFCA0EB0B0141F288308142C9
:101C300001D90320CAE630688007F2D4BAF1010F57
:101C400005D141483C30016821F080510160A06914
:101C5000C0B33D49091D09684FF0FF36C1F381014A
:101C6000022946D0022805D0C7F86090FFF7A6FCED
:101C700004463AE0C7F86090FFF7A0FC814607E011
:101C8000FFF79CFCA0EB0900022801D903209DE688
:101C900028688001F4D4D4E907010843616AA26A84
:101CA000890106EB520241EA0241084394F82C10E4
:101CB00040EA0160C8F8000001203866FFF77EFCAA
:101CC000044607E03DE0FFF779FC001B022801D93C
:101CD00003207BE628688001F5D532E0FFF76EFC33
:101CE000001B022801D9032070E628688001F5D482
:101CF00027E0012823D0D8F80000E26900F4800131
:101D000091421AD1226A00F03F01914215D147F663
:101D1000C071626A0140B1EB821F0ED1A26A00F469
:101D2000403106EB5202B1EB024F06D194F82C1071
:101D300000F07060B0EB016F03D0012046E6012097
:101D400044E6002042E6000004380240000047421A
:101D5000800E47420070004070B504460E4615469E
:101D6000002C03D094F8490010B107E0012070BDA9
:101D7000002084F84800204600F01DF804F1080116
:101D80002068FEF7C9FF3146A2682068FEF7F8FF19
:101D9000D4E901022946236BFEF79EFFA168206863
:101DA00050F8212042F0010240F82120012084F85F
:101DB0004900002070BDFFF7A9BA7047704710B501
:101DC0000446002C03D094F83D0010B107E0012038
:101DD00010BD002084F83C00204600F015F80220D9
:101DE00084F83D00211D206803F03AFE01203D34B7
:101DF00060726070A070E07020716071A071E0711D
:101E000020722070002010BD7047000090F83D1037
:101E1000012901D001207047022180F83D1001689E
:101E2000CA6842F00102CA6000681449884214D0AE
:101E3000B0F1804F11D0124988420ED0114988422A
:101E40000BD01149884208D01049884205D010496A
:101E5000884202D00F49884209D1816801F0070108
:101E6000062908D0016841F00101016003E0016822
:101E700041F00101016000207047000000000140B6
:101E80000004004000080040000C00400004014035
:101E90000040014000180040704770B504462068BB
:101EA00001694FF00005C943890716D4C168C943C9
:101EB000890712D4E91E016101202077206880691A
:101EC000800703D02046FFF7E7FF05E0204600F03B
:101ED0009BF8204600F099F8257720680169C943EE
:101EE000490718D4C168C943490714D46FF00401E5
:101EF0000161022020772068806910F4407F03D0C0
:101F00002046FFF7C9FF05E0204600F07DF8204697
:101F100000F07BF8257720680169C943090717D4C9
:101F2000C168C943090713D46FF008010161042097
:101F300020772068C069800703D02046FFF7ACFFF8
:101F400005E0204600F060F8204600F05EF82577B6
:101F500020680169C943C90618D4C168C943C906C4
:101F600014D46FF010010161082020772068C06947
:101F700010F4407F03D02046FFF78EFF05E0204697
:101F800000F042F8204600F040F82577206801690B
:101F9000C943C90708D1C168C943C90704D1891E0B
:101FA0000161204600F032F820680169C943090642
:101FB00009D4C168C943090605D46FF080010161E5
:101FC0002046FFF7FAFE20680169C943490609D493
:101FD000C168C943490605D46FF04001016120463C
:101FE00000F01EF820680169C94389060BD4C16856
:101FF000C943890607D46FF0200101612046BDE87E
:102000007040FFF7DBBE70BD704770470068034942
:10201000884201D1FFF7D8BA704700000014004091
:102020007047704710B5044620684069C0F3C0107F
:1020300094F83D10212911D180B12068143050E866
:10204000001F21F0800140E80012002AF5D1606BEA
:1020500008B1FEF765FF204603F01FFF20684069C6
:10206000C0F3801094F83E10222911D180B120686D
:10207000143050E8001F21F0400140E80012002A0F
:10208000F5D1A06B08B1FEF74BFF204603F0D1FE5F
:10209000002010BD70470000F8B5044622681068A3
:1020A000D168536900F00F06002E08D1850606D5C9
:1020B0008D0604D52046BDE8F84003F0FCBE00259F
:1020C000002E67D003F0010601F49077374361D00A
:1020D000C20705D0CA0503D5226C42F00102226472
:1020E000420705D5DA0703D0226C42F002022264CF
:1020F000820705D5DA0703D0226C42F0040222647D
:10210000020707D501F02002324303D0226C42F0CF
:1021100008022264226C002A32D0800604D5880688
:1021200002D5204603F0C7FE20684069C0F3801046
:10213000216C01F00801014327D0204603F079FE0D
:102140002068406940061CD52068143050E8001F04
:1021500021F0400140E80012002AF5D1A06B60B1E7
:1021600056490165A06BFEF722FF002808D0A06B3E
:10217000016D01B0BDE8F04008472046FFF78AFF37
:10218000F8BD2046FFF786FFF8BD2046FFF782FF27
:102190002564F8BD236B012B7ED1C3067CD5CB060D
:1021A0007AD510685068009050694FF020034006BF
:1021B00043D5A16B0868406880B20028E9D0A28DA1
:1021C0008242E6D9E085C869B0F5807F2DD02068CD
:1021D0000C3050E8001F21F4807140E80012002A02
:1021E000F5D12068143050E8001F21F0010140E8CB
:1021F0000012002AF5D12068143050E8001F21F0A9
:10220000400140E80012002AF5D184F83E302563F1
:1022100020680C3050E8001F21F0100140E8001247
:10222000002AF5D1A06BFEF77BFEA08DE18D401A50
:1022300081B22046FFF7F5FEF8BDA08DE18D401A72
:1022400081B2E08D0028F7D00029F5D020680C304D
:1022500050E8002F22F4907240E80026002EF5D1BD
:102260002068143050E8002F22F0010240E80026D8
:10227000002EF5D184F83E30256320680C3050E8FC
:10228000002F22F0100240E80023002BF5D1204659
:10229000FFF7C7FEF8BDFFE7020606D50A0604D51C
:1022A0002046BDE8F84003F03FBF4006F2D548069F
:1022B000F0D52046BDE8F84003F0E2BDF15C00082F
:1022C000FEB500681D49884236D100251C4C2068A7
:1022D0000168406800902046FFF7A4FEA06B0068EC
:1022E0004068C0F58070029001951648002301AA4D
:1022F00002A9006808F0E2FA0024134E134D06E02C
:102300003119002301AA286808F0D8FA641CBDF826
:1023100008008442F4DB4FF480720B49084800F057
:10232000BFF80198002807D009494FF08050086095
:10233000BFF34F8FBFF36F8FFEBD00000010014051
:10234000E41E00201C000020EC14002018000020D7
:1023500004ED00E070B50446002C04D094F83D0074
:10236000002510B106E0012070BD84F83C502046E5
:1023700000F022F8242084F83D002068C16821F490
:102380000051C160204603F0F9FD2068016921F485
:10239000904101612068416921F02A014161206872
:1023A000C16841F40051C1602564202084F83D00DB
:1023B00084F83E00002070BD2DE9F04186B005464E
:1023C000142101A8FDF7B5FF3049286888425AD189
:1023D00000262F48016841F010010160006800F0FC
:1023E000100000902A481438016841F00101016092
:1023F000006800F0010000904FF4C06001900220DE
:1024000002900396032004900720059001A921481B
:10241000FEF7D2FF214C204820604FF00068C4F83E
:102420000480A660E660071527616661A6618015D5
:10243000E061266266622046FEF7B4FE08B1FEF750
:1024400049FCAC63A5631448144C783060342060B8
:10245000C4F804804020A060E66027616661A66140
:10246000E661266266622046FEF79CFE08B1FEF732
:1024700031FC6C63A563002205212520FFF73CF9A0
:102480002520FFF72BF906B0BDE8F08100100140D0
:10249000443802400000024040640240281F0020EF
:1024A00090F83E30202B01D00220704759B152B134
:1024B00090F83C30012B08D0012380F83C300023F9
:1024C000036303F0E5BD01207047022070477047A9
:1024D00070472DE9F84304460E4615461F4694F80A
:1024E0003D00202802D00220BDE8F883C6B1BDB16E
:1024F00094F83C00012815D0012084F83C004FF0EE
:102500000009C4F84090212084F83D00FFF756F8F8
:102510008046A584E584A068B0F5805F04D005E01E
:102520000120E1E70220DFE7206920B135460026DF
:1025300084F83C9013E00025FAE74346002280210E
:102540002046009703F01FFE08B10320CCE79DB1A1
:10255000216815F8010B4860E08C401EE084E08C97
:102560000028EAD14346002240212046009703F08C
:102570000AFE40B10320B7E736F8020B2168C0F32A
:1025800008004860E8E7202084F83D000020ABE721
:10259000F7B5044694F83D00202801D00220FEBD86
:1025A000019999B392B394F83C00012831D00120ED
:1025B00084F83C002162A284E28400252564212065
:1025C00084F83D00636B1448D863636B1348186448
:1025D000636B1348D864606B056526681346361D27
:1025E0003246606BFEF748FE21686FF040000860DD
:1025F00084F83C502068143050E8001F41F08001FE
:1026000040E80012002AF5D10020FEBDFFE70120BE
:10261000FBE70220F9E70000E75D0008295E0008FB
:10262000015D000870477047EFF3088101A003F0D7
:10263000F3FDFEE7D5BBD6B8D5EB3A203078253090
:1026400038580A0070B5064600240A4A1188558891
:102650004D430021084602F089FC02F0C3FDB0B2F0
:102660004FF0D84102E0A1F88000641CAC42FAD3DC
:1026700070BD0000900900202DE9F04F304B98719B
:1026800019462C272B252A2689884FF430584FF4D9
:1026900028594FF4487441F6631A4FF0F00B45F295
:1026A000105E4FF4A07C4FF4F07200280ED0A3F817
:1026B00000C0A3F802B071452BD1A3F80880A3F89D
:1026C0000A90280298811C805A802DE0A3F800B05F
:1026D000A3F802C0714509D1A3F80880A3F80A90B5
:1026E0004FF42C5098811A805C800AE0514505D146
:1026F0001F815D819E811A805C8002E01F815E8166
:102700009D81A1F5A640103815D1A3F800C05A80CC
:1027100011E0514505D11F815E819D811C805A8049
:1027200002E01F815E819D81A1F5A640103802D193
:102730001A80A3F802C0BDE8F04F002002F03EBBB3
:10274000900900202DE9F04104460D46334E2F0A32
:102750003046B1884089A1F5AA434FEA1428103BBE
:102760001AD0A1F5C853633B32D002F02FFD40468A
:1027700002F020FDE0B202F01DFDB08902F026FD5E
:10278000384602F017FDE8B202F014FD2448318902
:1027900001804280BDE8F08102F018FD404602F061
:1027A00009FD7089401C80B202F010FDE0B202F019
:1027B00001FDB08902F00AFD384602F0FBFCB08949
:1027C000401C80B202F002FDE8B202F0F3FCDDE74B
:1027D000B17919B93188091B491E8CB202F0F6FC97
:1027E0004FEA1428404602F0E5FCE0B202F0E2FCB9
:1027F000404602F0DFFCE0B202F0DCFCB08902F0FF
:10280000E5FC384602F0D6FCE8B202F0D3FC3846CC
:1028100002F0D0FCE8B202F0CDFCB7E7900900204E
:102820007E00006C2DE9F05FD32002F0CFFC02F0B7
:1028300093FAFE4DA88002F08FFAA88002F08CFA7D
:102840004FF6FF7909EA0020A88002F085FAA988EE
:102850000843A88049F2413A45F2103745F2105634
:102860004FF4704B41F6631847F2897450457AD0A3
:10287000042002F0ABFC02F06FFAA88002F06CFAC0
:10288000A88002F069FA09EA0020A88002F064FA40
:10289000A9880843A880A0F50541523900D1AC8031
:1028A000A888A0425FD0D42002F090FC02F054FA35
:1028B000A88002F051FAA88002F04EFA09EA00203E
:1028C000A88002F049FAA9880843A880B8424AD0F3
:1028D0005521584602F090FCAA214FF2010002F067
:1028E0008BFC52214FF2020002F086FC08214FF2CD
:1028F000030002F081FC01214FF2040002F07CFC95
:102900004FF4454002F062FC02F026FA09EA00208A
:10291000A8804CF2015002F059FC02F01DFAA9887F
:102920000843A8800520FEF7DFFCA888B0F5004F1B
:1029300000D1AE80A888B04215D0A12002F046FC9C
:1029400002F00AFAA88002F007FA09EA0020A8803B
:1029500002F002FAA9880843A880A0F5AE416139C7
:1029600001D1A5F80480A988B1A003F055FCA8887E
:1029700050457CD1CF2002F029FC002002F01AFC47
:10298000C12002F017FC302002F014FCED2002F010
:102990001DFC642002F00EFC032002F00BFC122050
:1029A00002F008FC812002F005FCE82002F00EFC99
:1029B000852002F0FFFB102002F0FCFB7A2002F0E1
:1029C000F9FBCB2002F002FC392002F0F3FB2C20B3
:1029D00002F0F0FB002002F0EDFB342002F0EAFBF5
:1029E000022002F0E7FBF72002F0F0FB202002F0CB
:1029F000E1FBEA2002F0EAFB002002F0DBFB002012
:102A000002F0D8FBC02002F0E1FB1B2002F0D2FB59
:102A1000C12002F0DBFB012002F0CCFBC52002F05C
:102A2000D5FB302002F0C6FB302002F0C3FBC720EC
:102A300002F0CCFBB72002F0BDFB362002F0C6FB53
:102A4000482002F0B7FB3A2002F0C0FB552002F00C
:102A5000B1FBB12002F0BAFB002002F0ABFB1A2060
:102A600002F0A8FBB62002F0B1FB0A2000E099E0DA
:102A700002F0A0FBA22002F09DFBF22002F0A6FBD8
:102A8000002002F097FB262002F0A0FB012002F0BC
:102A900091FBE02002F09AFB0F2002F08BFB2A2032
:102AA00002F088FB282002F085FB082002F082FB60
:102AB0000E2002F07FFB082002F07CFB542002F085
:102AC00079FBA92002F076FB432002F073FB0A2079
:102AD00002F070FB0F2002F06DFB002002F06AFB99
:102AE000002002F067FB002002F064FB002002F0EF
:102AF00061FBE12002F06AFB002002F05BFB152085
:102B000002F058FB172002F055FB072002F052FBA1
:102B1000112002F04FFB062002F04CFB2B2002F0AC
:102B200049FB562002F046FB3C2002F043FB052007
:102B300002F040FB102002F03DFB0F2002F03AFBB8
:102B40003F2002F037FB3F2002F034FB0F2002F061
:102B500031FB2B2002F03AFB002002F02BFB00207F
:102B600002F028FB012002F025FB3F2002F022FBAF
:102B70002A2002F02BFB002002F01CFB002002F0B8
:102B800019FB002002F016FBEF2002F013FB1120CE
:102B900002F01CFB7820FEF7A7FB292002F016FBB1
:102BA00002F0A0B8A0427CD1112002F00FFB7820E7
:102BB000FEF79AFB362002F009FB002002F0FAFA39
:102BC0003A2002F003FB052002F0F4FAB22002F0F2
:102BD000FDFA0C2002F0EEFA0C2002F0EBFA0020D5
:102BE00002F0E8FA332002F0E5FA332002F0E2FACC
:102BF000B72002F0EBFA352002F0DCFABB2002F03D
:102C0000E5FA322002F0D6FAC02002F0DFFA0C20FA
:102C100002F0D0FAC22002F0D9FA012002F0CAFA7A
:102C2000C32002F0D3FA10200AE00000900900202F
:102C3000204C43442049443A25780D0A0000000006
:102C400002F0B8FAC42002F0C1FA202002F0B2FA71
:102C5000C62002F0BBFA0F2002F0ACFAD02002F03E
:102C6000B5FAA42002F0A6FAA12002F0A3FAE0200F
:102C700002F0ACFAD02002F09DFA002002F09AFA9D
:102C8000022002F097FA072002F094FA0A2002F0DC
:102C900091FA282002F08EFA322002F08BFA4420BA
:102CA00000E062E002F086FA422002F083FA062099
:102CB00002F080FA0E2002F07DFA122002F07AFA79
:102CC000142002F077FA172002F074FAE12002F0E3
:102CD0007DFAD02002F06EFA002002F06BFA02209A
:102CE00002F068FA072002F065FA0A2002F062FAA0
:102CF000282002F05FFA312002F05CFA542002F042
:102D000059FA472002F056FA0E2002F053FA1C201E
:102D100002F050FA172002F04DFA1B2002F04AFA96
:102D20001E2002F047FA2A2002F050FA002002F09A
:102D300041FA002002F03EFA002002F03BFAEF20B8
:102D400002F038FA2B2002F041FA002002F032FAA9
:102D5000002002F02FFA012002F02CFA3F2002F0AE
:102D600029FA292002F032FA1AE7B8427ED1ED2082
:102D700002F02CFA012002F01DFAFE2002F01AFAED
:102D8000EE2002F023FADE2002F014FA212002F0F5
:102D900011FAF12002F01AFA012002F00BFADF20FA
:102DA00002F014FA102002F005FAC42002F00EFA24
:102DB0008F2002F0FFF9C62002F008FA002002F08E
:102DC000F9F9E22002F0F6F9E22002F0F3F9E2204C
:102DD00002F0F0F9BF2002F0F9F9AA2002F0EAF9B6
:102DE000B02002F0F3F90D2002F0E4F9002002F027
:102DF000E1F90D2002F0DEF9002002F0DBF91120EC
:102E000002F0D8F9002002F0D5F9192002F0D2F929
:102E1000002002F0CFF9212002F0CCF9002002F0CE
:102E2000C9F92D2002F0C6F9002002F0C3F93D20B7
:102E300002F0C0F9002002F0BDF95D2002F0BAF9FD
:102E4000002002F0B7F95D2002F0B4F9002002F092
:102E5000B1F9B12002F0BAF9802002F0ABF90020FC
:102E600002F0A8F98B2002F0A5F900E0FDE30020B4
:102E700002F0A0F9962002F09DF9002002F09AF9E4
:102E8000B22002F0A3F9002002F094F9002002F031
:102E900091F9022002F08EF9002002F08BF9032054
:102EA00002F088F9002002F085F9B32002F08EF9D3
:102EB000002002F07FF9002002F07CF9002002F0EF
:102EC00079F9002002F076F9002002F073F9002071
:102ED00002F070F9002002F06DF9002002F06AF9AA
:102EE000002002F067F9002002F064F9002002F0EF
:102EF00061F9002002F05EF9002002F05BF9002089
:102F000002F058F9002002F055F9002002F052F9C1
:102F1000002002F04FF9002002F04CF9002002F0EE
:102F200049F9002002F046F9002002F043F90020A0
:102F300002F040F9002002F03DF9002002F03AF9D9
:102F4000B42002F043F98B2002F034F9002002F0A3
:102F500031F9962002F02EF9002002F02BF9A12081
:102F600002F028F9002002F025F9B52002F02EF930
:102F7000022002F01FF9002002F01CF9032002F0E9
:102F800019F9002002F016F9042002F013F90020CC
:102F900002F010F9B62002F019F9002002F00AF947
:102FA000002002F007F9B72002F010F9002002F02B
:102FB00001F9002002F0FEF83F2002F0FBF80020AB
:102FC00002F0F8F85E2002F0F5F8002002F0F2F8C6
:102FD000642002F0EFF8002002F0ECF88C2002F000
:102FE000E9F8002002F0E6F8AC2002F0E3F8002057
:102FF00002F0E0F8DC2002F0DDF8002002F0DAF860
:10300000702002F0D7F8002002F0D4F8902002F0EF
:10301000D1F8002002F0CEF8EB2002F0CBF800202F
:1030200002F0C8F8DC2002F0C5F8002002F0C2F877
:10303000B82002F0CBF8002002F0BCF8002002F02B
:10304000B9F8002002F0B6F8002002F0B3F8002032
:1030500002F0B0F8002002F0ADF8002002F0AAF86B
:10306000002002F0A7F8BA2002F0B0F8242002F005
:10307000A1F8002002F09EF8002002F09BF800204A
:1030800002F098F8C12002F0A1F8202002F092F896
:10309000002002F08FF8542002F08CF8002002F09B
:1030A00089F8FF2002F086F8002002F083F8C220A1
:1030B00002F08CF80A2002F07DF8002002F07AF885
:1030C000042002F077F8002002F074F8C32002F028
:1030D0007DF83C2002F06EF8002002F06BF83A20F8
:1030E00002F068F8002002F065F8392002F062F87A
:1030F000002002F05FF8372002F05CF8002002F0B8
:1031000059F83C2002F056F8002002F053F836201F
:1031100002F050F8002002F04DF8322002F04AF898
:10312000002002F047F82F2002F044F8002002F0BF
:1031300041F82C2002F03EF8002002F03BF8292054
:1031400002F038F8002002F035F8262002F032F8BC
:10315000002002F02FF8242002F02CF8002002F0CA
:1031600029F8242002F026F8002002F023F823207A
:1031700002F020F8002002F01DF83C2002F01AF8BE
:10318000002002F017F8362002F014F8002002F0B8
:1031900011F8322002F00EF8002002F00BF82F2078
:1031A00002F008F8002002F005F82C2002F002F8E6
:1031B000002001F0FFFF292001F0FCFF002001F0BA
:1031C000F9FF262001F0F6FF002001F0F3FF242094
:1031D00001F0F0FF002001F0EDFF242001F0EAFFF4
:1031E000002001F0E7FF232001F0E4FF002001F0C0
:1031F000E1FFC42001F0EAFF622001F0DBFF0020C4
:1032000001F0D8FF052001F0D5FF002001F0D2FF2A
:10321000842001F0CFFF002001F0CCFFF02001F06E
:10322000C9FF002001F0C6FF182001F0C3FF0020F5
:1032300001F0C0FFA42001F0BDFF002001F0BAFFA3
:10324000182001F0B7FF002001F0B4FF502001F07A
:10325000B1FF002001F0AEFF0C2001F0ABFF002019
:1032600001F0A8FF172001F0A5FF002001F0A2FF48
:10327000952001F09FFF002001F09CFFF32001F05A
:1032800099FF002001F096FFE62001F093FF002057
:1032900001F090FFC52001F099FF322001F08AFF74
:1032A000002001F087FF442001F084FF002001F09E
:1032B00081FF652001F07EFF002001F07BFF76207A
:1032C00001F078FF002001F075FF882001F072FF07
:1032D000002001F06FFFC62001F078FF202001F0F0
:1032E00069FF002001F066FF172001F063FF002056
:1032F00001F060FF012001F05DFF002001F05AFFA6
:10330000C72001F063FF002001F054FF002001F00E
:1033100051FF002001F04EFF002001F04BFFC820BC
:1033200001F054FF002001F045FF002001F042FFB2
:10333000002001F03FFF002001F03CFFC92001F018
:1033400045FF002001F036FF002001F033FF002090
:1033500001F030FF002001F02DFF002001F02AFFD6
:10336000002001F027FF002001F024FF002001F0E1
:1033700021FF002001F01EFF002001F01BFF0020B4
:1033800001F018FF002001F015FF002001F012FFEE
:10339000002001F00FFF002001F00CFF002001F0E1
:1033A00009FFE02001F012FF162001F003FF0020CA
:1033B00001F000FF1C2001F0FDFE002001F0FAFEEC
:1033C000212001F0F7FE002001F0F4FE362001F08C
:1033D000F1FE002001F0EEFE462001F0EBFE0020A1
:1033E00001F0E8FE522001F0E5FE002001F0E2FECF
:1033F000642001F0DFFE002001F0DCFE7A2001F005
:10340000D9FE002001F0D6FE8B2001F0D3FE002073
:1034100001F0D0FE992001F0CDFE002001F0CAFE9F
:10342000A82001F0C7FE002001F0C4FEB92001F081
:10343000C1FE002001F0BEFEC42001F0BBFE002052
:1034400001F0B8FECA2001F0B5FE002001F0B2FE86
:10345000D22001F0AFFE002001F0ACFED92001F037
:10346000A9FE002001F0A6FEE02001F0A3FE00204E
:1034700001F0A0FEF32001F09DFE002001F09AFE75
:10348000E12001F0A3FE162001F094FE002001F0DF
:1034900091FE1C2001F08EFE002001F08BFE222008
:1034A00001F088FE002001F085FE362001F082FE4A
:1034B000002001F07FFE452001F07CFE002001F09D
:1034C00079FE522001F076FE002001F073FE6420A8
:1034D00001F070FE002001F06DFE7A2001F06AFE1E
:1034E000002001F067FE8B2001F064FE002001F057
:1034F00061FE992001F05EFE002001F05BFEA82035
:1035000001F058FE002001F055FEB92001F052FEF6
:10351000002001F04FFEC42001F04CFE002001F01D
:1035200049FECA2001F046FE002001F043FED220F1
:1035300001F040FE002001F03DFED82001F03AFEEF
:10354000002001F037FEE02001F034FE002001F001
:1035500031FEF32001F02EFE002001F02BFEE220D0
:1035600001F034FE052001F025FE002001F022FECE
:103570000B2001F01FFE002001F01CFE1B2001F0BB
:1035800019FE002001F016FE342001F013FE002089
:1035900001F010FE442001F00DFE002001F00AFEB3
:1035A0004F2001F007FE002001F004FE612001F031
:1035B00001FE002001F0FEFD792001F0FBFD00205E
:1035C00001F0F8FD882001F0F5FD002001F0F2FD8A
:1035D000972001F0EFFD002001F0ECFDA62001F0A6
:1035E000E9FD002001F0E6FDB72001F0E3FD002039
:1035F00001F0E0FDC22001F0DDFD002001F0DAFD68
:10360000C72001F0D7FD002001F0D4FDD12001F04A
:10361000D1FD002001F0CEFDD62001F0CBFD002031
:1036200001F0C8FDDD2001F0C5FD002001F0C2FD64
:10363000F32001F0BFFD002001F0BCFDE32001F00C
:10364000C5FD052001F0B6FD002001F0B3FD0A2004
:1036500001F0B0FD002001F0ADFD1C2001F0AAFD3D
:10366000002001F0A7FD332000E0FCE201F0A2FD04
:10367000002001F09FFD442001F09CFD002001F09E
:1036800099FD502001F096FD002001F093FD62208D
:1036900001F090FD002001F08DFD782001F08AFD01
:1036A000002001F087FD882001F084FD002001F05A
:1036B00081FD972001F07EFD002001F07BFDA6201A
:1036C00001F078FD002001F075FDB72001F072FDDA
:1036D000002001F06FFDC22001F06CFD002001F020
:1036E00069FDC72001F066FD002001F063FDD120D7
:1036F00001F060FD002001F05DFDD52001F05AFDD4
:10370000002001F057FDDD2001F054FD002001F004
:1037100051FDF32001F04EFD002001F04BFDE420AF
:1037200001F054FD012001F045FD002001F042FDB3
:10373000012001F03FFD002001F03CFD022001F0DE
:1037400039FD002001F036FD2A2001F033FD002074
:1037500001F030FD3C2001F02DFD002001F02AFD9C
:103760004B2001F027FD002001F024FD5D2001F039
:1037700021FD002001F01EFD742001F01BFD002042
:1037800001F018FD842001F015FD002001F012FD6C
:10379000932001F00FFD002001F00CFDA22001F0AC
:1037A00009FD002001F006FDB32001F003FD00201B
:1037B00001F000FDBE2001F0FDFC002001F0FAFC4C
:1037C000C42001F0F7FC002001F0F4FCCD2001F052
:1037D000F1FC002001F0EEFCD32001F0EBFC002016
:1037E00001F0E8FCDD2001F0E5FC002001F0E2FC46
:1037F000F32001F0DFFC002001F0DCFCE52001F00B
:10380000E5FC002001F0D6FC002001F0D3FC0020F4
:1038100001F0D0FC002001F0CDFC022001F0CAFC38
:10382000002001F0C7FC292001F0C4FC002001F0B9
:10383000C1FC3C2001F0BEFC002001F0BBFC4B2091
:1038400001F0B8FC002001F0B5FC5D2001F0B2FCF5
:10385000002001F0AFFC742001F0ACFC002001F06E
:10386000A9FC842001F0A6FC002001F0A3FC932019
:1038700001F0A0FC002001F09DFCA22001F09AFCC8
:10388000002001F097FCB32001F094FC002001F02F
:1038900091FCBE2001F08EFC002001F08BFCC420C6
:1038A00001F088FC002001F085FCCD2001F082FCB5
:1038B000002001F07FFCD32001F07CFC002001F00F
:1038C00079FCDC2001F076FC002001F073FCF32091
:1038D00001F070FC002001F06DFCE62001F076FCA8
:1038E000112001F067FC002001F064FC342001F09D
:1038F00061FC002001F05EFC562001F05BFC002022
:1039000001F058FC762001F055FC002001F052FC3B
:10391000772001F04FFC002001F04CFC662001F004
:1039200049FC002001F046FC882001F043FC002007
:1039300001F040FC992001F03DFC002001F03AFC30
:10394000BB2001F037FC002001F034FC992001F08D
:1039500031FC002001F02EFC662001F02BFC002041
:1039600001F028FC552001F025FC002001F022FC8C
:10397000552001F01FFC002001F01CFC452001F047
:1039800019FC002001F016FC432001F013FC00207C
:1039900001F010FC442001F00DFC002001F00AFCB5
:1039A000E72001F013FC322001F004FC002001F0BC
:1039B00001FC552001F0FEFB002001F0FBFB76200E
:1039C00001F0F8FB002001F0F5FB662001F0F2FBAE
:1039D000002001F0EFFB672001F0ECFB002001F07C
:1039E000E9FB672001F0E6FB002001F0E3FB872004
:1039F00001F0E0FB002001F0DDFB992001F0DAFB93
:103A0000002001F0D7FBBB2001F0D4FB002001F027
:103A1000D1FB992001F0CEFB002001F0CBFB7720F9
:103A200001F0C8FB002001F0C5FB442001F0C2FBFF
:103A3000002001F0BFFB562001F0BCFB002001F08C
:103A4000B9FB232001F0B6FB002001F0B3FB3320CB
:103A500001F0B0FB002001F0ADFB452001F0AAFB16
:103A6000002001F0A7FBE82001F0B0FB002001F0EE
:103A7000A1FB002001F09EFB992001F09BFB0020A0
:103A800001F098FB872001F095FB002001F092FBEC
:103A9000882001F08FFB002001F08CFB772001F0E3
:103AA00089FB002001F086FB662001F083FB0020EB
:103AB00001F080FB882001F07DFB002001F07AFB03
:103AC000AA2001F077FB002001F074FBBB2001F07D
:103AD00071FB002001F06EFB992001F06BFB0020D0
:103AE00001F068FB662001F065FB002001F062FB3D
:103AF000552001F05FFB002001F05CFB552001F038
:103B000059FB002001F056FB442001F053FB00203C
:103B100001F050FB442001F04DFB002001F04AFB76
:103B2000552001F047FB002001F044FBE92001F0A3
:103B30004DFBAA2001F03EFB002001F03BFB0020E2
:103B400001F038FB002001F035FB002001F03EFBC6
:103B5000AA2001F02FFBCF2001F038FB002001F05C
:103B600029FB002001F026FB002001F023FB0020B0
:103B700001F020FB002001F01DFB002001F01AFBEA
:103B8000002001F017FB002001F014FB002001F0E1
:103B900011FB002001F00EFB002001F00BFB0020C8
:103BA00001F008FB002001F005FB002001F002FB02
:103BB000002001F0FFFA002001F0FCFA002001F0E3
:103BC000F9FAF02001F002FB002001F0F3FA502096
:103BD00001F0F0FA002001F0EDFA002001F0EAFA1D
:103BE000002001F0E7FAF32001F0F0FA002001F0E4
:103BF000E1FAF92001F0EAFA062001F0DBFA1020E0
:103C000001F0D8FA292001F0D5FA002001F0D2FA0B
:103C10003A2001F0DBFA552001F0CCFA112001F036
:103C2000D5FA6420FDF760FB292001F0CFFA35209A
:103C300001F0CCFA002001F0BDFA512001F0C6FAE3
:103C4000FF2001F0B7FA532001F0C0FA2C2001F058
:103C5000B1FA552001F0BAFA822001F0ABFA2C201B
:103C600001F0B4FAFEE3B0427DD155214FF470402B
:103C700001F0C2FAAA214FF2010001F0BDFA52216F
:103C80004FF2020001F0B8FA4FF203030821184680
:103C900001F0B2FA4FF2040B0121584601F0ACFAE0
:103CA0000D214FF4304001F0A7FA0D214BF2010035
:103CB00001F0A2FA0D214BF2020001F09DFA34212D
:103CC0004FF4364001F098FA34214BF2016001F0D4
:103CD00093FA34214BF2026001F08EFA0D214FF479
:103CE000314001F089FA0D214BF2011001F084FA04
:103CF0000D214BF2021001F07FFA34214FF43740CE
:103D000001F07AFA34214BF2017001F075FA342196
:103D10004BF2027001F070FA00214FF4324001F0D2
:103D20006BFA00214BF2012001F066FA00214BF200
:103D3000022001F061FA24214FF4384001F05CFACE
:103D400024214BF6010001F057FA24214BF6020022
:103D500001F052FA01214FF43F4001F04DFA0F21DA
:103D60004FF4334000E0FCE301F046FA0F214BF240
:103D7000013001F041FA0F214BF2023001F03CFA20
:103D800034214FF4394001F037FA34214BF6011059
:103D900001F032FA34214BF6021001F02DFA08211D
:103DA0004FF4354001F028FA08214BF2015001F0A0
:103DB00023FA08214BF2025001F01EFA03214FF4BE
:103DC000424001F019FA24214FF43A4001F014FA6C
:103DD00024214BF6012001F00FFA24214BF602209A
:103DE00001F00AFA00214FF43C4001F005FA782175
:103DF0004BF6014001F000FA00214BF6024001F0C1
:103E0000FBF900214FF43D4001F0F6F978214BF623
:103E1000015001F0F1F900214BF6025001F0ECF9EC
:103E200000214FF43E4001F0E7F964214BF60160B8
:103E300001F0E2F900214FF4514001F0DDF93321A6
:103E40004DF2011001F0D8F900214DF2021001F0FD
:103E5000D3F934214DF2031001F0CEF900214DF2D7
:103E6000041001F0C9F93A214DF2051001F0C4F92E
:103E700000214DF2061001F0BFF94A214DF2071062
:103E800001F0BAF900214DF2081001F0B5F95C21FA
:103E90004DF2091001F0B0F900214DF20A1001F0C5
:103EA000ABF981214DF20B1001F0A6F900214DF282
:103EB0000C1001F0A1F9A6214DF20D1001F09CF9B2
:103EC00000214DF20E1001F097F9E5214DF20F108F
:103ED00001F092F901214DF2101001F08DF913213A
:103EE0004DF2111001F088F901214DF2121001F08C
:103EF00083F954214DF2131001F07EF901214DF2A6
:103F0000141001F079F982214DF2151001F074F9C5
:103F100001214DF2161001F06FF9CA214DF2171070
:103F200001F06AF902214DF2181001F065F9002143
:103F30004DF2191001F060F902214DF21A1001F052
:103F40005BF901214DF21B1001F056F902214DF2EF
:103F50001C1001F051F934214DF21D1001F04CF903
:103F600002214DF21E1001F047F967214DF21F109A
:103F700001F042F902214DF2201001F03DF98421B7
:103F80004DF2211001F038F902214DF2221001F01A
:103F900033F9A4214DF2231001F02EF902214DF244
:103FA000241001F029F9B7214DF2251001F024F970
:103FB00002214DF2261001F01FF9CF214DF22710FA
:103FC00001F01AF902214DF2281001F015F9DE2155
:103FD0004DF2291001F010F902214DF22A1001F0E2
:103FE0000BF9F2214DF22B1001F006F902214DF2EE
:103FF0002C1001F001F9FE214DF22D1001F0FCF81A
:1040000003214DF22E1001F0F7F810214DF22F1080
:1040100001F0F2F803214DF2301001F0EDF83321F8
:104020004DF2311001F0E8F803214DF2321001F0A9
:10403000E3F86D214DF2331001F0DEF800214FF46A
:10404000524001F0D9F833214DF2012001F0D4F8AB
:1040500000214DF2022001F0CFF834214DF203206F
:1040600001F0CAF800214DF2042001F0C5F83A2110
:104070004DF2052001F0C0F800214DF2062001F0BC
:10408000BBF84A214DF2072001F0B6F800214DF2AD
:10409000082001F0B1F85C214DF2092001F0ACF8E4
:1040A00000214DF20A2001F0A7F881214DF20B20EA
:1040B00001F0A2F800214DF20C2001F09DF8A6219C
:1040C0004DF20D2001F098F800214DF20E2001F084
:1040D00093F8E5214DF20F2001F08EF801214DF209
:1040E000102001F089F813214DF2112001F084F81D
:1040F00001214DF2122001F07FF854214DF21320DE
:1041000001F07AF801214DF2142001F075F88221B6
:104110004DF2152001F070F801214DF2162001F04A
:104120006BF8CA214DF2172001F066F802214DF21A
:10413000182001F061F800214DF2192001F05CF81F
:1041400002214DF21A2001F057F801214DF21B20F7
:1041500001F052F802214DF21C2001F04DF83421FB
:104160004DF21D2001F048F802214DF21E2001F011
:1041700043F867214DF21F2001F03EF802214DF275
:10418000202001F039F884214DF2212001F034F88B
:1041900002214DF2222001F02FF8A4214DF223201C
:1041A00001F02AF802214DF2242001F025F8B72170
:1041B0004DF2252001F020F802214DF2262001F0D9
:1041C0001BF8CF214DF2272001F016F802214DF205
:1041D000282001F011F8DE214DF2292001F00CF821
:1041E00002214DF22A2001F007F8F2214DF22B2096
:1041F00001F002F802214DF22C2000F0FDFFFE211B
:104200004DF22D2000F0F8FF03214DF22E2000F09A
:10421000F3FF10214DF22F2000F0EEFF03214DF2AD
:10422000302000F0E9FF33214DF2312000F0E4FFAF
:1042300003214DF2322000F0DFFF6D214DF23320DB
:1042400000F0DAFF00214FF4534000F0D5FF332196
:104250004DF2013000F0D0FF00214DF2023000F0AD
:10426000CBFF34214DF2033000F0C6FF00214DF2A8
:10427000043000F0C1FF3A214DF2053000F0BCFFE0
:1042800000214DF2063000F0B7FF4A214DF2073011
:1042900000F0B2FF00214DF2083000F0ADFF5C21CC
:1042A0004DF2093000F0A8FF00214DF20A3000F075
:1042B000A3FF81214DF20B3000F09EFF00214DF253
:1042C0000C3000F099FFA6214DF20D3000F094FF64
:1042D00000214DF20E3000F08FFFE5214DF20F303E
:1042E00000F08AFF01214DF2103000F085FF13210C
:1042F0004DF2113000F080FF01214DF2123000F03C
:104300007BFF54214DF2133000F076FF01214DF276
:10431000143000F071FF82214DF2153000F06CFF77
:1043200001214DF2163000F067FFCA214DF217301F
:1043300000F062FF02214DF2183000F05DFF002115
:104340004DF2193000F058FF02214DF21A3000F002
:1043500053FF01214DF21B3000F04EFF02214DF2C0
:104360001C3000F049FF34214DF21D3000F044FFB5
:1043700002214DF21E3000F03FFF67214DF21F3049
:1043800000F03AFF02214DF2203000F035FF842189
:104390004DF2213000F030FF02214DF2223000F0CA
:1043A0002BFFA4214DF2233000F026FF02214DF215
:1043B000243000F021FFB7214DF2253000F01CFF22
:1043C00002214DF2263000F017FFCF214DF22730A9
:1043D00000F012FF02214DF2283000F00DFFDE2127
:1043E0004DF2293000F008FF02214DF22A3000F092
:1043F00003FFF2214DF22B3000F0FEFE02214DF2C0
:104400002C3000F0F9FEFE214DF22D3000F0F4FECC
:1044100003214DF22E3000F0EFFE10214DF22F302F
:1044200000F0EAFE03214DF2303000F0E5FE3321CA
:104430004DF2313000F0E0FE03214DF2323000F059
:10444000DBFE6D214DF2333000F0D6FE00214FF43B
:10445000544000F0D1FE33214DF2014000F0CCFE7B
:10446000002100E083E34DF2024000F0C5FE34215C
:104470004DF2034000F0C0FE00214DF2044000F078
:10448000BBFE3A214DF2054000F0B6FE00214DF290
:10449000064000F0B1FE4A214DF2074000F0ACFEAC
:1044A00000214DF2084000F0A7FE5C214DF20940CA
:1044B00000F0A2FE00214DF20A4000F09DFE812195
:1044C0004DF20B4000F098FE00214DF20C4000F040
:1044D00093FEA6214DF20D4000F08EFE00214DF21C
:1044E0000E4000F089FEE5214DF20F4000F084FE01
:1044F00001214DF2104000F07FFE13214DF21140DA
:1045000000F07AFE01214DF2124000F075FE5421B8
:104510004DF2134000F070FE01214DF2144000F006
:104520006BFE82214DF2154000F066FE01214DF236
:10453000164000F061FECA214DF2174000F05CFE0B
:1045400002214DF2184000F057FE00214DF21940B3
:1045500000F052FE02214DF21A4000F04DFE012102
:1045600000E005E34DF21B4000F046FE02214DF253
:104570001C4000F041FE34214DF21D4000F03CFE95
:1045800002214DF21E4000F037FE67214DF21F4020
:1045900000F032FE02214DF2204000F02DFE842179
:1045A0004DF2214000F028FE02214DF2224000F0A1
:1045B00023FEA4214DF2234000F01EFE02214DF205
:1045C000244000F019FEB7214DF2254000F014FE02
:1045D00002214DF2264000F00FFECF214DF2274080
:1045E00000F00AFE02214DF2284000F005FEDE2117
:1045F0004DF2294000F000FE02214DF22A4000F069
:10460000FBFDF2214DF22B4000F0F6FD02214DF2B0
:104610002C4000F0F1FDFE214DF22D4000F0ECFDAC
:1046200003214DF22E4000F0E7FD10214DF22F4006
:1046300000F0E2FD03214DF2304000F0DDFD3321BA
:104640004DF2314000F0D8FD03214DF2324000F030
:10465000D3FD6D214DF2334000F0CEFD00214FF42B
:10466000554000F0C9FD33214DF2015000F0C4FD6A
:1046700000214DF2025000F0BFFD34214DF20350F5
:1046800000F0BAFD00214DF2045000F0B5FD3A21D2
:104690004DF2055000F0B0FD00214DF2065000F043
:1046A000ABFD4A214DF2075000F0A6FD00214DF26E
:1046B000085000F0A1FD5C214DF2095000F09CFD76
:1046C00000214DF20A5000F097FD81214DF20B5070
:1046D00000F092FD00214DF20C5000F08DFDA6215E
:1046E0004DF20D5000F088FD00214DF20E5000F00B
:1046F00083FDE5214DF20F5000F07EFD01214DF2CA
:10470000105000F079FD13214DF2115000F074FDAE
:1047100001214DF2125000F06FFD54214DF2135063
:1047200000F06AFD01214DF2145000F065FD822178
:104730004DF2155000F060FD01214DF2165000F0D1
:104740005BFDCA214DF2175000F056FD02214DF2DB
:10475000185000F051FD00214DF2195000F04CFDB1
:1047600002214DF21A5000F047FD01214DF21B507D
:1047700000F042FD02214DF21C5000F03DFD3421BD
:104780004DF21D5000F038FD02214DF21E5000F098
:1047900033FD67214DF21F5000F02EFD02214DF236
:1047A000205000F029FD84214DF2215000F024FD1D
:1047B00002214DF2225000F01FFDA4214DF22350A2
:1047C00000F01AFD02214DF2245000F015FDB72132
:1047D0004DF2255000F010FD02214DF2265000F060
:1047E0000BFDCF214DF2275000F006FD02214DF2C6
:1047F000285000F001FDDE214DF2295000F0FCFCB4
:1048000002214DF22A5000F0F7FCF2214DF22B501C
:1048100000F0F2FC02214DF22C5000F0EDFCFE21E4
:104820004DF22D5000F0E8FC03214DF22E5000F027
:10483000E3FC10214DF22F5000F0DEFC03214DF27D
:10484000305000F0D9FC33214DF2315000F0D4FC4F
:1048500003214DF2325000F0CFFC6D214DF2335068
:1048600000F0CAFC00214FF4564000F0C5FC332193
:104870004DF2016000F0C0FC00214DF2026000F03A
:10488000BBFC34214DF2036000F0B6FC00214DF278
:10489000046000F0B1FC3A214DF2056000F0ACFC80
:1048A00000214DF2066000F0A7FC4A214DF207609E
:1048B00000F0A2FC00214DF2086000F09DFC5C219C
:1048C0004DF2096000F098FC00214DF20A6000F002
:1048D00093FC81214DF20B6000F08EFC00214DF223
:1048E0000C6000F089FCA6214DF20D6000F084FC04
:1048F00000214DF20E6000F07FFCE5214DF20F60CB
:1049000000F07AFC01214DF2106000F075FC1321DB
:104910004DF2116000F070FC01214DF2126000F0C8
:104920006BFC54214DF2136000F066FC01214DF246
:10493000146000F061FC82214DF2156000F05CFC17
:1049400001214DF2166000F057FCCA214DF21760AC
:1049500000F052FC02214DF2186000F04DFC0021E5
:104960004DF2196000F048FC02214DF21A6000F08F
:1049700043FC01214DF21B6000F03EFC02214DF290
:104980001C6000F039FC34214DF21D6000F034FC55
:1049900002214DF21E6000F02FFC67214DF21F60D6
:1049A00000F02AFC02214DF2206000F025FC842159
:1049B0004DF2216000F020FC02214DF2226000F057
:1049C0001BFCA4214DF2236000F016FC02214DF2E5
:1049D000246000F011FCB7214DF2256000F00CFCC2
:1049E00002214DF2266000F007FCCF214DF2276036
:1049F00000F002FC02214DF2286000F0FDFBDE21F8
:104A00004DF2296000F0F8FB02214DF22A6000F01F
:104A1000F3FBF2214DF22B6000F0EEFB02214DF290
:104A20002C6000F0E9FBFE214DF22D6000F0E4FB6C
:104A300003214DF22E6000F0DFFB10214DF22F60BC
:104A400000F0DAFB03214DF2306000F0D5FB33219A
:104A50004DF2316000F0D0FB03214DF2326000F0E6
:104A6000CBFB6D214DF2336000F0C6FB55214FF4B6
:104A7000704000F0C1FBAA214FF2010000F0BCFB26
:104A800052214FF2020000F0B7FB0821184600F057
:104A9000B3FB0021584600F0AFFBCC214FF431406E
:104AA00000F0AAFB00214BF2011000F0A5FB05214C
:104AB0004FF4364000F0A0FB70214FF4374000F077
:104AC0009BFB70214BF2017000F096FB01214FF42B
:104AD000384000F091FB03214BF6010000F08CFB05
:104AE00003214BF6020000F087FB03214BF6030085
:104AF00000F082FB02214FF43C4000F07DFB0021DE
:104B00004BF6014000F078FB00214BF6024000F02C
:104B100073FBD0214FF4494000F06EFB02214CF6AC
:104B2000011000F069FB50214CF6021000F064FB0C
:104B300050214CF6031000F05FFB50214CF604109E
:104B400000F05AFB00214FF4545000F055FB552162
:104B50004FF4685000F050FB4FF4885000F036FBE3
:104B60000120FCF7C1FB4FF4245000F02FFBB9E00B
:104B70004045FCD1E22000F029FB1D2000F01AFB8B
:104B8000022000F017FB042000F014FB0120FCF7CA
:104B9000ABFBE02000F01AFB012000F00BFB0A2029
:104BA000FCF7A2FBE02000F011FB032000F002FB69
:104BB0000C20FCF799FB012000F008FB0A20FCF711
:104BC00093FBE62000F002FB2F2000F0F3FAFF2019
:104BD00000F0F0FAFF2000F0EDFAB02000F0F6FA55
:104BE000202000F0E7FA002000F0E4FA032000F0B3
:104BF000E1FA40F21F3000F0DDFA012000F0DAFAAD
:104C000040F2DF1000F0D6FA002000F0D3FAB42012
:104C100000F0DCFA042000F0CDFA40F21F4000F072
:104C2000C9FA002000F0C6FA2E2000F0C3FA0020D6
:104C300000F0C0FA002000F0BDFA002000F0BAFA3F
:104C4000002000F0B7FAB62000F0C0FA022000F011
:104C5000B1FA4FF4037000F0ADFA002000F0AAFAA8
:104C6000172000F0A7FA152000F0A4FA002000F0A9
:104C7000A1FA002000F09EFAF02000F0A7FA03202D
:104C800000F098FA292000F0A1FAD02000F09EFA56
:104C9000002000F08FFABE2000F098FA052000F006
:104CA00089FAFE2000F086FA012000F083FA002045
:104CB00000F080FA002000F07DFA002000F07AFA7F
:104CC000B82000F083FA032000F074FA012000F00D
:104CD00071FABA2000F07AFA012000F06BFA642031
:104CE00000F044F8A888504507D0A04205D0B8424B
:104CF00003D0B04201D040451DD115490A6822F0C9
:104D00000F020A600A6822F470620A600A6842F0C0
:104D100003020A60A1F58E71A04206D1D1F81C01F0
:104D200040F44070C1F81C0105E0D1F81C0140F4CA
:104D30000070C1F81C010020FDF79EFC0122D10388
:104D40000448FCF721FC4846BDE8F05FFDF77ABC5B
:104D50001C0100A00004024008B503480088009030
:104D6000BDF8000008BD00008000006C10B50246D0
:104D7000BE2000F02BFA052000F01CFA1046FBF7CD
:104D80007FFC9FED0C1B53EC112BFBF798FBFBF703
:104D900084FC80B200F00EFA012000F00BFAFF2034
:104DA00000F008FA002000F005FABDE810400020ED
:104DB00000F000BA666666666666044070B5002359
:104DC000694C41F663162146A2798988012A01D1EE
:104DD000B14202D1C2B9B14216D1082814D2DFE8DB
:104DE00000F00406080A0C0E101206200CE0072042
:104DF0000AE0042008E0052006E0012004E000208D
:104E000002E0032000E00220082812D2DFE800F0D0
:104E1000110406080A0C0E1080230AE0402308E063
:104E2000C02306E0202304E0602302E0A02300E08A
:104E3000E02345F21055A94202D14FF4585000E04A
:104E40003620A1F51342413A03D0A1F5EE42893A4A
:104E500001D143F00803194600F0CEF9A288B2420E
:104E60000ED0980606D520886188884208D2218015
:104E7000608005E020886188884201D921806080B7
:104E8000AA4247D1608900F0A1F9002000F092F910
:104E90006089401C80B200F099F9002000F08AF986
:104EA0006089801C80B200F091F92088401EC0F318
:104EB0000F2000F07FF96089C01C80B200F086F9F5
:104EC0002078401EC0B200F075F9A08900F07EF98C
:104ED000002000F06FF9A089401C80B200F076F944
:104EE000002000F067F9A089801C80B200F06EF904
:104EF0006088401EC0F30F2000F05CF9A089C01C40
:104F000080B200F063F9A078BDE87040401EC0B2E6
:104F100000F050B9608900F059F9002000F04AF91A
:104F2000002000F047F92088401EC0F30F2000F059
:104F300041F92078401EC0B200F03CF9A08900F091
:104F400045F9002000F036F9002000F033F96088C0
:104F5000401EC0F30F2000F02DF9A078BDE870408E
:104F6000401EC0B200F026B990090020F0B50246FC
:104F70000C463E4D260A2846A988170A4089A1F505
:104F8000C853633B16D0A1F5AA43103B50D000F0A4
:104F90001DF9384600F00EF9D0B200F00BF9A889DF
:104FA00000F014F9304600F005F9E0B2BDE8F04039
:104FB00000F000B9A97941B300F008F9384600F0D3
:104FC000F9F8D0B200F0F6F82888401EC0F30F20A0
:104FD00000F0F0F82878401EC0B200F0EBF8A88985
:104FE00000F0F4F8304600F0E5F8E0B200F0E2F846
:104FF0006888401EC0F30F2000F0DCF8A878BDE8F8
:10500000F040401EC0B200F0D5B82988891A491E68
:105010008AB200F0DBF8002000F0CCF8002000F0AD
:10502000C9F8100A00F0C6F8D0B200F0C3F8D6E70D
:1050300000F0CCF8384600F0BDF86889401C80B21A
:1050400000F0C4F8D0B200F0B5F8A88900F0BEF8BE
:10505000304600F0AFF8A889401C80B200F0B6F8E6
:10506000E0B2BDE8F04000F0A5B8000090090020D3
:105070002DE9F84F82460D461F46AB46780701D012
:10508000012000E0002000EBD70079084843C0B2BF
:105090000090203A02F0FF09002650E00C2F14D0B7
:1050A000102F19D0182F1CD0202F4BD1264800EBE1
:1050B000C910845D4FF00008200619D52348294601
:1050C00002685046FDF73EFB1AE0214909EB490012
:1050D00001EB8000845DEDE71E4800EB0910845D64
:1050E000E8E71D4909EBC90001EB8000845DE1E7B9
:1050F0000A9828B91548294642685046FDF722FB10
:105100006006040E6D1CADB214484088A84219D93F
:10511000A5EB0B00B84209D15D460AF1010A1FFA5E
:105120008AFA0E48008850450CD906E008F10108BB
:1051300008F0FF08B8F1080FBED3761CF6B200984D
:105140008642ABD3BDE8F88FD4C800080000002029
:1051500014B1000888B5000878BB00089009002049
:105160002DE9F84F0446DDE90A760D4604F0FF0804
:1051700010191FFA80F958191FFA80FA4FF0000B26
:1051800011E04C4502D34446E81985B255450FD28B
:105190003B4629462046CDF800B0FFF769FF04EBF7
:1051A000570084B2761C3278A2F120005E28E8D93C
:1051B000BDE8F88F01B5BDF800000090BDF8000013
:1051C0000149088008BD00008000006C01B5BDF8F1
:1051D00000000090BDF800000149088008BD0000F3
:1051E0007E00006C02480349008908807047000077
:1051F000900900207E00006C014A108051807047A9
:105200007E00006C10B50749054808600846FBF7AA
:1052100061FE002803D0BDE81040FBF75BBD10BD68
:10522000003002403400002008B50D48016841F408
:1052300080010160006800F48000009000220521D8
:105240003A20FCF759FA3A20FCF748FA00220521E7
:105250004620FCF751FABDE808404620FCF73EBA6C
:105260003038024010B59CB005F07CF81D4CA060B1
:1052700001210022080205F0D1F92060022100225C
:10528000084605F0CBF960601C22174915A8FBF70A
:1052900037F8002115A803F0C8FEE0601C2212496F
:1052A0001C310EA8FBF72CF800210EA803F0BDFE60
:1052B00020611C220C49383107A8FBF721F8002196
:1052C00007A803F0B2FE60611C220749543168460A
:1052D000FBF716F80021684603F0A7FEA0611CB09A
:1052E00010BD00001800002058F8000810B58EB05E
:1052F0001C2107A8FBF71DF81C216846FBF719F8CD
:105300001B484FF0204101601A494160062181602D
:105310000021C1600161102242618161C1610162AD
:10532000416213028362C16293020363416381633A
:1053300041640F20079008903C2309930A910B9237
:1053400011230C930D9109240094019008200290E0
:1053500003910492059306916A4607A90448FCF755
:10536000FBFC002801D0FBF7B5FC0EB010BD00001F
:10537000941E0020040100A070B586B0142101A87D
:10538000FAF7D7FF00252648016841F08001016047
:10539000016801F080010091016841F02001016085
:1053A000016801F020010091016841F010010160E5
:1053B000016801F010010091016841F002010160F3
:1053C000016801F002010091016841F008010160EB
:1053D000016801F008010091016841F001010160DC
:1053E000016801F001010091016841F04001016094
:1053F000006800F0400000900A4E4FF40044002284
:1054000021463046FCF7C0F80194012102910221A7
:105410000391049501A93046FBF7CEFF06B070BD9D
:10542000303802400004024010B50C480A490160BF
:105430004FF4E131416000218160C16001610C22C3
:1054400042618161C161FCF785FF002803D0BDE89E
:105450001040FBF73FBC10BD00100140E41E0020CF
:1054600010B5FFF7E1FFBDE8104002F037BBFEE7E3
:10547000FEE770B504460E4615463046FAF764FF5F
:10548000C0B2207101F03EF9206022793146FAF76E
:1054900037FF2846FAF758FFC0B2207301F032F9FF
:1054A000A060227B2946BDE87040FAF729BF2DE9AC
:1054B000F0470446894690461E46227930462168C8
:1054C000FAF71EFF257946F805802D1D0027B8F153
:1054D000010F03D0B8F1030F06D010E04846C827EB
:1054E000711900F089FB0AE099F8000003F000FC54
:1054F000182101EBC00771194846FBF7BAFCE819FF
:1055000080B2227B3044A168BDE8F047FAF7F8BECC
:105510002DE9F041DDF8188004460D4616461F4679
:105520002279207B1118081DB04206D9091D27A039
:1055300000F072FE0020BDE8F08128462168FAF7ED
:105540000AFF30B9227BA819801AA168FAF703FF75
:1055500020B12BA000F060FE0020ECE72079285C51
:10556000C0B288F8000021792D1D0D44227B711AEC
:10557000891A091F8CB2012803D0032813D00020F8
:10558000D9E703F0D3FBA04204D024A000F044FEEE
:105590000020D0E7C82001F0B5F83860294600F0B7
:1055A000C5FA0120C7E7287803F0BAFBA04204D06F
:1055B00024A000F031FE0020BDE7682001F0A2F831
:1055C00038602946FBF7FBFB0120B4E77061636B91
:1055D0006574206C656E6774682069732073686FEA
:1055E00072746572207468616E206578706563748A
:1055F0006564206C656E6774682025640A0000008D
:10560000686561646572206F72207461696C206DD9
:1056100069736D617463680A0000000074656C65ED
:105620006D6574727920737472756374206461742B
:1056300061206C656E677468206D69736D61746359
:10564000680A00006661756C7420706172616D7328
:10565000207374727563742064617461206C656E6C
:10566000677468206D69736D617463680A00000077
:105670002DE9F8432AA000F0CFFD00200090304F24
:10568000461E31460B466A46002005F0A3FB012862
:10569000F7D1009C3CB12046FBF704FA38B129A0B1
:1056A00000F0BAFDEDE72FA000F0B6FDE9E738689D
:1056B00080B3456875B32868FBF720F844F8A80F55
:1056C00061606868FBF71AF8C4E90201A868FBF793
:1056D00015F8C4E90401A83CDFF8AC8000220121E0
:1056E000D8F8000002F086FE85B2284B0122214640
:1056F000D8F80000FFF7DBFE2A4624492448FCF7CF
:1057000047FF24480121806804F03AFE204600F05B
:1057100065FEB6E7FFE720A000F07EFDBDE8F88358
:10572000446174612070726F636573732074617378
:105730006B2063726561746564200D0A00000000CF
:1057400010000020453A2041495F52756E5F496E56
:10575000666572656E6365206661696C65640D0AD5
:1057600000000000453A204661696C656420746F52
:10577000206765742074656C656D6574727920644A
:105780006174610D0A00000014000020EC16002076
:10579000E41E002018000020E99499E8AFAFEFBCA8
:1057A0009A414920E8BE93E587BAE69CAAE5889D20
:1057B000E5A78BE58C96EFBC815C6E001FB52CA035
:1057C00000F02AFD00270397304D4FF0FF384FF4CB
:1057D0008079424603A9686805F0D0F80128F8D11D
:1057E000BDF80C00FE2808D329A000F015FD039792
:1057F00049463048FAF79DFDEBE700242D4E0BE0BB
:1058000031194246286805F0B9F8012803D02AA0CA
:1058100000F002FD04E0641CBDF80C008442EFDBE4
:10582000029701A800902A4802ABBDF80C2021493C
:105830000068FFF76DFE80B19DF80410012910D0BB
:1058400024A000F0E9FC029808B100F0C7FD03971E
:1058500049461848FAF76DFDBBE724A000F0DCFCD0
:10586000B7E7029900230322A86905F0C3F9EAE724
:10587000446174612072656376207461736B206388
:10588000726561746564200D0A0000001800002034
:105890005175657565206C656E20697320746F6F36
:1058A000206C6F6E672C20726573657474696E6707
:1058B0000D0A0000EC1500205175657565207265B4
:1058C0006365697665206661696C65640D0A000030
:1058D00014000020556E6B6E6F776E2064617461EA
:1058E00020747970653A2025640D0A004661696C60
:1058F000656420746F20756E7061636B20646174E1
:10590000610D0A0042F21074204603F081FBFBE7B0
:105910008AB012A000F080FC0024202102A8FAF72F
:1059200008FD154E651E02AF4FF0180801220095C4
:1059300000231146B06804F073FDC007F6D0621C66
:1059400014460EA102A800F077FCCDE900871823C9
:10595000D22250211420FFF703FCE7E74C434420F8
:10596000636F6E74726F6C207461736B2063726509
:1059700061746564200D0A00180000206B3A202530
:105980006400000010B5502080F31188BFF34F8FE2
:10599000BFF36F8F05F0B6F918B104494FF080508E
:1059A0000860002080F3118810BD000004ED00E0C5
:1059B00030B593B0302107A8FAF7BBFC142102A838
:1059C000FAF7B7FC00251D48016841F080510160DD
:1059D000006800F0805001901948016841F480414E
:1059E0000160006800F480400190012007900004ED
:1059F000089002240D9480010E9004200F90A8219D
:105A000010911194129007A8FBF7C6FF08B1FBF79D
:105A100061F90F200290039404954FF4A050059073
:105A20004FF480500690052102A8FBF797FE00284E
:105A300001D0FBF74FF913B030BD000040380240F1
:105A4000007000400248016841F470010160704735
:105A500088ED00E00148FCF720BA0000E81F0020B4
:105A60002DE9F0410268264D264E274FDFF89CC0F5
:105A7000274B4FF08048A84209D0404507D0B0429C
:105A800005D0B84203D0604501D0984203D122F03E
:105A900070044A682243A8421BD0404519D0B04246
:105AA00017D0B84215D0604513D0984211D0194C88
:105AB000A0420ED0184CA0420BD0184CA04208D0E7
:105AC000174CA04205D0174CA04202D0164CA04261
:105AD00003D122F44074CA6822434C6922F0800248
